:020000022000DC
:103000000000012079C80200A1C80200A3C8020084
:10301000A5C80200A7C80200A9C80200000000005D
:10302000000000000000000000000000ABC802002B
:10303000ADC8020000000000AFC80200B18E02005F
:10304000756C0200B3C802001D7D0200B3C8020007
:10305000B3C80200B3C8020021710200B3C8020065
:10306000B3C80200B3C80200B3C80200B3C802006C
:10307000B3C80200B3C80200B3C80200B3C802005C
:10308000B3C80200BD4F0200B3C80200B3C80200BB
:10309000FD4F0200B3C8020039D90200B3C80200D4
:1030A000B3C80200B3C80200B3C80200B3C802002C
:1030B000B3C80200B3C80200000000000000000016
:1030C000B3C80200B3C80200B3C80200B3C802000C
:1030D000B3C80200B3C80200B3C802000000000079
:1030E00000000000000000000000000000000000E0
:1030F00000000000000000000000000000000000D0
:1031000000000000000000000000000000000000BF
:1031100000000000000000000000000000000000AF
:10312000000000000000000000000000000000009F
:10313000000000000000000000000000000000008F
:10314000000000000000000000000000000000007F
:10315000000000000000000000000000000000006F
:10316000000000000000000000000000000000005F
:10317000000000000000000000000000000000004F
:10318000000000000000000000000000000000003F
:10319000000000000000000000000000000000002F
:1031A000000000000000000000000000000000001F
:1031B000000000000000000000000000000000000F
:1031C00000000000000000000000000000000000FF
:1031D00000000000000000000000000000000000EF
:1031E00000000000000000000000000000000000DF
:1031F00000000000000000000000000000000000CF
:1032000010B5054C237833B9044B13B10448AFF320
:1032100000800123237010BDB82B002000000000A7
:1032200078F00200084B10B51BB108480849AFF30D
:1032300000800848036803B910BD074B002BFBD082
:10324000BDE81040184700BF0000000078F0020001
:10325000BC2B00203C2B002000000000154B002B55
:1032600008BF134B9D46A3F5803A00218B460F46BD
:103270001348144A121A0AF0EEFD0F4B002B00D02F
:1032800098470E4B002B00D09847002000210400E7
:103290000D000D48002802D00C48AFF300800AF062
:1032A00099FD2000290005F055FE0AF07FFD00BFC2
:1032B00000000800000001200000000000000000E5
:1032C000B82B00204438002000000000000000005F
:1032D00080B500AF07F054FA80BD00BF80B588B05C
:1032E00000AFF860B9607A607B68002B21D00023C2
:1032F000FB610A23BB61BA68FB69134400201946CD
:103300007A6807F0EFF97861FA697B691344FB6129
:103310007A687B69D31A7B607B69002B06D1BB6915
:10332000013BBB61BB69002B00D102E07B68002B35
:10333000E1D12037BD4680BD80B584B002AF786052
:103340003960054B009378683968044A402300F0DF
:103350001BF80837BD4680BDDD320200D42B0020AB
:1033600080B483B000AF78600C37BD465DF8047B55
:10337000704700BF80B483B000AF78600C37BD46A3
:103380005DF8047B704700BF90B5A1B002AFF86054
:10339000B9607A603B60B86802F09EFF7B68FB64AE
:1033A0003B683B6500237B65002387F8583000238A
:1033B000FB65D7F888303B6600237B6707F1340351
:1033C000B868194608227B6F03F03AF808237B6738
:1033D000FB6B3B64BB6B9BB2A7F84430002387F8C0
:1033E000483097F8343003F00303DBB2012B38D1B7
:1033F0007B6BC3F39523FB6697F83430C3F3C203AA
:10340000DBB287F8463097F83430C3F38003DBB281
:10341000002B14BF01230023DBB287F84730BB8E9B
:10342000C3F38313DBB2BB66BB6E9B0007F11C02C8
:10343000B86811461A467B6F03F002F8BB6E9B001A
:103440007A6F13447B6707F11C0207F1400407F110
:103450004C030093F86E1146BA6E234600F062FEEC
:1034600040E097F8343003F00303DBB2022B39D18C
:10347000FB8EC3F389139BB23B6797F83430C3F3D9
:10348000C203DBB287F8463097F83430C3F38003C9
:10349000DBB2002B14BF01230023DBB287F84730D7
:1034A0003B6F082B28BF08237B6607F11403B8681D
:1034B00019467A6E7B6F02F0C3FF7A6F7B6E1344FE
:1034C0007B673A6F7B6ED31A3B6707F1140107F1F4
:1034D000400207F14C030846796E00F0C3FE3B6FD3
:1034E000002BDDD1B86802F007FF7C37BD4690BDE8
:1034F00080B483B000AF78607B6801225A720C37C9
:10350000BD465DF8047B704780B582B000AF4FF0D8
:10351000FF337B60FFF7DCFE0548042100F03EFD31
:1035200078600348FFF7E4FF0837BD4680BD00BF61
:10353000682A002080B582B000AF786039607B686F
:103540001B681B687868396898470837BD4680BD96
:1035500080B582B000AF78607B681B685B68786874
:1035600098470837BD4680BD80B483B000AF78600F
:103570000B46FB707B68FA781A720C37BD465DF813
:10358000047B704780B483B000AF78607B681B7A9F
:1035900018460C37BD465DF8047B704780B483B095
:1035A00000AF78607B6801225A720C37BD465DF827
:1035B000047B704780B483B000AF78607B685B7A2F
:1035C00018460C37BD465DF8047B704790B486B052
:1035D00000AF786039607B683A6853E8004F44EA8E
:1035E000020043E8000191F0000FF6D17C613861E0
:1035F000F9603B6918461837BD4690BC704700BF5C
:1036000090B486B000AF786039607B683A6853E860
:10361000004F04EA020043E8000191F0000FF6D1E8
:103620007C613861F9607B6918461837BD4690BCEB
:10363000704700BF80B582B000AF78607868012124
:10364000FFF7C4FF034618460837BD4680BD00BFDC
:1036500080B582B000AF786078680021FFF7D0FFB6
:10366000034618460837BD4680BD00BF80B586B00A
:1036700000AF78601F4BFF229A601E4B00221A6039
:103680001C4B00225A601B4B0022C3F81824194B14
:103690000022C3F81424174B002283F81C24164878
:1036A00002F082FD38613B69002B01D03B691CE0D0
:1036B000124A134BD31ADB08FB6000237B610FE037
:1036C0007A6913465B0013449B001A460D4B134462
:1036D000BB607B699AB2BB681A807B6901337B61EE
:1036E0007A69FB689A42EBD3002318461837BD4627
:1036F00080BD00BFE42C0020BCE502001CF10200EC
:10370000CCF00200402B002080B400AF044A054BEF
:10371000D31ADB081846BD465DF8047B704700BF2E
:103720001CF10200CCF0020080B586B000AF7860DA
:103730000B46FB70FB78002B23D0FFF7E5FF3861C9
:1037400000237B6117E07A6913465B0013449B00FA
:103750001A460E4B1344FB60FB685B881A467B6875
:103760001B689A4204D17B687A691A60002309E0D9
:103770007B6901337B617A693B699A42E3D3052314
:1037800000E0002318461837BD4680BD402B0020BE
:1037900080B584B000AF78600B46FB703A1DFB78B3
:1037A00010461946FFF7C0FF0346002B07D17B6880
:1037B000DB00054A1344FB60FB681B6800E0002344
:1037C00018461037BD4680BDCCF0020080B485B0ED
:1037D00000AF78600B46FB707B68DB00144A134433
:1037E000BB60FB78013B032B18D801A252F823F0F1
:1037F00001380200073802000D38020015380200B7
:103800000223FB730DE00423FB730AE0BB681B7902
:10381000FB7306E0BB685B79FB7302E00023FB737C
:1038200000BFFB7B18461437BD465DF8047B70472C
:10383000CCF0020080B588B000AF3D48FFF7FAFE3B
:103840003C48FFF7F7FE3C4B5B68FB613A4B9B68DB
:103850003B61FA693B69134002339B00364A1344CB
:103860000433BB611BE0FB690133FB61BB695B880F
:10387000C3F389139BB21A46BB691B88C3F3891330
:103880009BB213441A46FB691344FB61FA693B6916
:10389000134002339B00284A13440433BB61BB69C5
:1038A0001B7803F00303DBB2002BDCD000237B6129
:1038B00011E07B699B003A461A44FB69591CF96187
:1038C00039690B401C4902339B000B445B68136051
:1038D0007B6901337B617B69012BEAD93B78C3F3B8
:1038E0000103DBB2012B0CD0022B00D012E07B884D
:1038F000C3F389139BB203339B08FA691344FB613A
:1039000008E03B88C3F38313DBB21A46FB69134418
:10391000FB6100BF0748FFF79BFEF860FB68002BC8
:1039200002D0054AFB6953602037BD4680BD00BF09
:10393000FC300020F8300020E42C002080B487B058
:1039400000AFF860B9607A603B60FB681B0CFB82DB
:103950003B685A1C3B6A1340FA8A214902339B0098
:103960000B445A603A683B6A134002339B001C4A7E
:10397000134404333B61FB6803F01003002B14BFB6
:1039800001230023D9B23A69137861F382031370DB
:10399000FB68DBB203F00703D9B23A69137861F32D
:1039A000C50313707B68DBB203F00F03D9B23A6929
:1039B000138861F389131380BB68C3F315013A6957
:1039C000136861F39F2313603A691378012161F34F
:1039D000010313701C37BD465DF8047B704700BFC0
:1039E000E42C002080B58AB000AF786039607B6835
:1039F00002333B620223FB610123FB760023FB734E
:103A000007F10F03184601F06BFC214B1A683B6865
:103A10001A601F4B9A681E4B59681D4B1B68CB1AC6
:103A2000134401337B623A6AFB6913447B610BE008
:103A3000FFF700FF164B9A68154B5968144B1B682B
:103A4000CB1A134401337B627A697B6A9A42EFD8BE
:103A50000F4B1A680E4B9B68134002339B000C4AB5
:103A6000134404333B613A69137843F00303137042
:103A7000074B1A683B6A1344054A1360FB7B1846E0
:103A800001F038FCFB7E18462837BD4680BD00BFDC
:103A9000E42C002090B58BB002AFF860B9607A607A
:103AA0003B601F4B9B687B6107F110033868194628
:103AB000FFF798FF0346002B24D03B690233FB61DC
:103AC0000023BB6111E0FB695A1CFA617A6913405B
:103AD000BA69920079680A441268114902339B005E
:103AE0000B445A60BB690133BB61BA693B689A42B7
:103AF000E9D33C697B690093F868B9683A68234662
:103B0000FFF71CFF064B93F81C34002B05D000BFB9
:103B100000F052F80346002BFAD12437BD4690BD81
:103B2000E42C002080B582B000AF786039607868FE
:103B3000396800220023FFF7ADFF0837BD4680BD7E
:103B400080B586B000AFF860B9607A607B687B6151
:103B500007F11403F868B9681A460123FFF79AFFC2
:103B60001837BD4680BD00BF80B586B000AFF86095
:103B7000B9607A603B607B683B613B687B6107F1C1
:103B80001003F868B9681A460223FFF783FF183755
:103B9000BD4680BD80B400AF064B5A68054B1B681C
:103BA0009A420CBF01230023DBB21846BD465DF8E4
:103BB000047B7047E42C002080B598B000AFFFF77D
:103BC000E9FF0346002B01D00023AEE1994B002210
:103BD000C3F81824BFF34F8F964B5B68FB65954B7A
:103BE0009B683B64FA6D3B6C134002339B00914A27
:103BF00013440433BB6500237B6500233B6500232E
:103C0000FB631BE0FB6D0133FB65BB6D5B88C3F39E
:103C100089139BB21A46BB6D1B88C3F389139BB2F1
:103C200013441A46FB6D1344FB65FA6D3B6C13405D
:103C300002339B007F4A13440433BB65BB6D1B7882
:103C400003F00303DBB2002BDCD00023FB6412E0A3
:103C5000FB6C9B0007F108021A44FB6D591CF965C7
:103C6000396C0B40734902339B000B445B68136053
:103C7000FB6C0133FB64FB6C012BE9D93B7A03F04D
:103C80000303DBB2022B40F09A807B89C3F38913D4
:103C90009BB27B637B89C3F389139BB2502BA8BF74
:103CA00050233B633B6B9BB2C3F309039AB27B89FE
:103CB00062F38F137B813B6B0833FB623B7AC3F368
:103CC000C203DBB2FB635C48F96A02F079FA7865FB
:103CD0007B6D002B72D0786D02F0FEFA07F10803BD
:103CE000786D194608223B6D02F098FB3B6D083356
:103CF0003B65FB6DDA433B6C134001339B00BB62B9
:103D00003A6BBB6A9A4243D9BB6A002B08D0FA6D62
:103D10003B6C134002339B00464A1344043300E0DB
:103D2000464B7B62BB6A002B02D0BB6ADBB201E070
:103D30003B6BDBB287F82330BB6A002B01D03F4BD3
:103D400000E00023FB61BB6A002B06D03B6BDAB2BC
:103D5000BB6ADBB2D31ADBB200E00023FB7697F834
:103D60002330786D796A1A463B6D02F057FB97F85D
:103D700023303A6D13443B65FB69002B07D0FB7E73
:103D8000786DF9691A463B6D02F048FB0FE00EE0D2
:103D9000FA6D3B6C134002339B00264A13440433F4
:103DA0007B61786D79693A6B3B6D02F037FB7B6B19
:103DB00003339B08FA6D1344FB656DE06CE03B7ABE
:103DC00003F00303DBB2012B59D13B89C3F3831307
:103DD000DBB2062B28BF0623DBB203F00F03DAB2F7
:103DE0003B8962F389133B813B89C3F38313DBB2C5
:103DF0000233BB633B7AC3F3C203DBB2FB63BB6B2F
:103E00009B000D48194602F0DBF978657B6D002BAD
:103E100034D0786D02F060FA07F10803786D194626
:103E200008223B6D02F0FAFA3B6D08333B65002334
:103E3000FB641BE0E42C0020BCE50200F02C002019
:103E4000FB6D5A1CFA653A6C134002339B00394AE9
:103E500013440433786D194604223B6D02F0DEFAF8
:103E60003B6D04333B65FB6C0133FB643B89C3F35F
:103E70008313DBB21A46FB6C9A42E1D80CE03B7A22
:103E800003F00303DBB2032B06D12A4BD3F818341B
:103E9000002B01D1002348E07B6D002B3CD0254B4B
:103EA000D3F81034BB64234BD3F81834002B03D061
:103EB000786D02F021FA2FE016E0002387F84730F2
:103EC000B86CFFF777FB0346002B02D0012387F87D
:103ED000473097F84730002B03D0B86C796DFFF767
:103EE00029FBBB6C5B68BB64BB6C002BE5D1786DB8
:103EF00002F002FA0023FB71FB1D184601F0F0F9F5
:103F00000C4BD3F81834002B02D10A4AFB6D5360D6
:103F1000FB79184601F0EEF9FFF73CFE0346002B53
:103F200001D0002300E0012300BF18466037BD46E2
:103F300080BD00BFE42C002080B584B000AF00231A
:103F4000FB601FE0144BD3F81034BB600123FB71FE
:103F50000DE0B868FFF716FB03461A46FB689A4265
:103F600002D10023FB7105E0BB685B68BB60BB68E6
:103F7000002BEED1FB79002B01D0FB6807E0FB683A
:103F80000133FB60FB68092BDCDD4FF0FF33184683
:103F90001037BD4680BD00BFE42C002080B584B042
:103FA00000AF78600B46FB70FFF7C6FFF860FB6858
:103FB000B3F1FF3F01D1FB681EE0FB68DBB278681C
:103FC0001946FFF7D1FA0E4BD3F81034002B07D166
:103FD0000B4A7B68C2F810347B6800225A600AE002
:103FE000074BD3F810345A687B685A60044BD3F8F7
:103FF00010347A685A60FB6818461037BD4680BD99
:10400000E42C002080B582B000AF0C4BD3F8103404
:104010007B600A4B012283F81C2408E07868FFF7D4
:10402000BDFA7868FFF794FA7B685B687B607B6811
:10403000002BF3D10837BD4680BD00BFE42C002023
:1040400090B583B000AF786039607B68DB7983F02E
:104050000103DBB2002B28D07B681B7A002B12D027
:104060007B689B881A467B689B7910461946FFF748
:10407000ADFB03461A460E4B53F8223038680D4903
:104080001A4601F07DFA7B689B791A460A4B53F871
:1040900022407B689B8818460021FFF779FB034686
:1040A00038680649224601F06BFA0C37BD4690BDD0
:1040B000882A002048E60200742A00204CE602000C
:1040C00080B584B000AFF860B9601346FB71FB683F
:1040D000DB7983F00103DBB2002B0FD0FB681B7A86
:1040E000002B06D00C4B1B68B8680C491A4601F02F
:1040F00047FAB8680A4901F043FA06E0FB79002B59
:1041000003D0B868064901F03BFAB86801F020FA1C
:104110001037BD4680BD00BF882A002048E6020057
:1041200058E60200B0B58AB004AFF860B9607A60B2
:104130003B60BB6A1B7BFB75BB6A00221A73386845
:10414000B96AFFF77DFF7B68062B7FD801A252F882
:1041500023F000BF714102007B4102008B4102004D
:104160009F410200BD410200E541020015420200EC
:10417000B86AF96801F004FA69E0BB681B68B86ABC
:10418000F9681A4601F0FCF961E0BB681A68BB687F
:1041900004331B68B86AF96801F0F2F957E0BB68AC
:1041A0001A68BB6804331C68BB6808331B6800933B
:1041B000B86AF968234601F0E3F948E0BB681D6876
:1041C000BB6804331C68BB6808331A68BB680C33CF
:1041D0001B6800920193B86AF9682A46234601F0E9
:1041E000CFF934E0BB681D68BB6804331C68BB684A
:1041F00008331968BB680C331A68BB6810331B6836
:10420000009101920293B86AF9682A46234601F0A8
:10421000B7F91CE0BB681D68BB6804331C68BB6849
:1042200008331868BB680C331968BB6810331A6808
:10423000BB6814331B680090019102920393B86A23
:10424000F9682A46234601F09BF900E000BF386870
:10425000B96A0022FFF734FFBB6AFA7D1A73183778
:10426000BD46B0BD80B586B000AFF860B9607A6079
:104270003B60BB68082B00D959E03B681B7BFB7493
:104280003B6800221A7378683968FFF7D9FE00236B
:104290007B6114E07A69BB689A4209D2FA687B694B
:1042A00013441B78386823491A4601F069F903E082
:1042B0003868214901F064F97B6901337B617B69CE
:1042C000072BE7D938681D4901F05AF900237B61B3
:1042D00022E07A69BB689A4217D2FA687B69134474
:1042E0001B78BB74164B1A68BB7C013313441B78D4
:1042F00003F09703002B01D0BB7C00E02E2338682D
:1043000010491A4601F03CF903E038680E4901F003
:1043100037F97B6901337B617B69072BD9D97868D1
:1043200039680122FFF7CCFE3B68FA7C1A73183714
:10433000BD4680BD5CE6020064E6020068E602005D
:10434000CC2A00206CE6020070E6020080B586B040
:1043500000AF78600023BB8100233B617B687B61F9
:1043600007F10C0344F2010000211A4600F018F88E
:104370001837BD4680BD00BF80B400AFBFF34F8F7C
:104380000549054BDB6803F4E062044B1343CB6043
:10439000BFF34F8F00BFFDE700ED00E00400FA051A
:1043A00080B584B000AFF860B9607A60FFF72AFE8C
:1043B00000BFFFF701FC0346002BFAD10E4B1B8810
:1043C0001B0443F0010318460C49FFF7ABFB0C4BF1
:1043D0001B6803F00103002B00D0FFDE064B1B8897
:1043E0001B0443F0020318460649FFF79BFBFFF747
:1043F000C3FF1037BD4680BD402B002074E602008D
:10440000F0ED00E080E6020080B485B000AF786097
:104410007B689B68FB607B68DA68FB68D31A184688
:104420001437BD465DF8047B704700BF80B483B08D
:1044300000AF78600B46FB707B681A687B68DB68AE
:10444000796889880B401344FA781A707B68DB68B6
:104450005A1C7B68DA600C37BD465DF8047B7047F8
:1044600080B485B000AFF8600B467A607B81FB6852
:104470001A68FB6899687B890B44F96889880B4046
:1044800013441A787B681A701437BD465DF8047BB4
:10449000704700BF80B582B000AF7860396078683F
:1044A00000213A68FFF7DCFF7B689B685A1C7B6839
:1044B0009A600837BD4680BD80B582B000AF786095
:1044C0000B46FB707868FFF79FFF02467B689B886E
:1044D0009A4206D8FB7878681946FFF7A7FF0023B1
:1044E00000E0042318460837BD4680BD80B582B081
:1044F00000AF786039607868FFF786FF0346002BCD
:1045000005D078683968FFF7C5FF002300E0052370
:1045100018460837BD4680BD80B483B000AF03465F
:10452000FB71084997F907305B09FA7902F01F021D
:10453000012000FA02F241F823200C37BD465DF855
:10454000047B704700E100E080B483B000AF034615
:10455000FB71094997F907305B09FA7902F01F02EC
:10456000012000FA02F2203341F823200C37BD4627
:104570005DF8047B704700BF00E100E080B483B0C9
:1045800000AF0346FB71094997F907305B09FA79D7
:1045900002F01F02012000FA02F2403341F823200A
:1045A0000C37BD465DF8047B704700BF00E100E0BA
:1045B00080B483B000AF0346FB71094997F9073017
:1045C0005B09FA7902F01F02012000FA02F260335F
:1045D00041F823200C37BD465DF8047B704700BFCF
:1045E00000E100E080B483B000AF03463960FB71A6
:1045F00097F90730002B0BDA0D49FB7903F00F0315
:10460000043B3A68D2B25201D2B20B441A7609E0A6
:10461000084997F907303A68D2B25201D2B20B4436
:1046200083F800230C37BD465DF8047B704700BF5C
:1046300000ED00E000E100E080B485B000AF7860FC
:10464000254BFB607B68002B40D0244B1A68F9682F
:104650007B6800BF00BF00BF00BF00BF00BF00BF3E
:1046600000BF8A422FD000BF00BF00BF00BF00BF05
:1046700000BF00BF00BF00BF00BF00BF00BF00BF42
:1046800000BF00BF00BF00BF00BF00BF00BF00BF32
:1046900000BF00BF00BF00BF00BF00BF00BF00BF22
:1046A00000BF00BF00BF00BF00BF00BF00BF00BF12
:1046B00000BF00BF00BF00BF00BF00BF00BF00BF02
:1046C00000BF00BF00BF013BC3D17B601437BD46B4
:1046D0005DF8047B704700BF0024F400C82A002066
:1046E00080B582B000AF7860054A7B68C2F80835B3
:1046F00011200721FFF776FF0837BD4680BD00BFB8
:104700000010014080B500AF0C4B4FF48032C3F86D
:1047100044230A4B4FF48032C3F804231120FFF7DF
:1047200047FF1120FFF7F8FE044B01221A602F20EB
:10473000FFF782FF024B01221A7080BD001001407A
:104740002232002080B500AF1120FFF7FDFE0E4B96
:104750004FF48032C3F848230B4B4FF48032C3F838
:104760000823094B01225A602F20FFF765FF064BF3
:1047700001229A60054B00221A602F20FFF75CFF90
:10478000034B00221A7080BD00100140143200203B
:104790002232002080B400AF034BD3F80435184612
:1047A000BD465DF8047B70470010014080B483B0C3
:1047B00000AF786039607A683B68D31A23F07F4392
:1047C00018460C37BD465DF8047B704780B483B053
:1047D00000AF7860044A7B68C2F840350C37BD46AC
:1047E0005DF8047B704700BF0010014080B487B0C3
:1047F00000AF7860294B1B68002B03D1274A7B68E8
:10480000136045E07B681A68244B1B681B689A425A
:1048100010D8224B1B68214A126811687A68126806
:104820008A1A1A601D4B1A687B68DA611B4A7B681A
:1048300013602DE07B681B68FB60184B1B687B6175
:10484000164B1B683B6109E03B691B68FA68D31A89
:10485000FB603B697B613B69DB693B613B69002B2A
:1048600004D03B691A68FB689A42EDD33B69002B80
:1048700005D03B691A68FB68D21A3B691A607B68ED
:10488000FA681A607B683A69DA617B697A68DA618A
:104890001C37BD465DF8047B704700BF1032002016
:1048A00080B586B000AF7860294B1B68FB60284B51
:1048B0001B687B617B693B6109E03A697B689A42CE
:1048C00000D107E03B697B613B69DB693B613B6988
:1048D000002BF2D13B69002B01D1002333E07A6930
:1048E0003B699A4214D11A4B1B68DB69184A136062
:1048F000174B1B68002B0BD1164B01229A60164BED
:1049000000221A60154B01221A702F20FFF794FE27
:104910003B691B68BB603B69DA697B69DA617B696B
:10492000DB693B613B69002B05D03B691A68BB68BA
:104930001A443B691A60064B1B68FA689A4214BF16
:1049400001230023DBB218461837BD4680BD00BFE7
:1049500010320020001001401432002023320020C9
:1049600080B500AF1120FFF709FE80BD80B500AF14
:104970001420FFF703FE80BD80B582B000AF7860E1
:104980007B685B697A689269104698470837BD462C
:1049900080BD00BF80B584B000AF2A4B1B68002BE0
:1049A0004DD000237B60FFF7F5FE0246264B1B68C7
:1049B00010461946FFF7FAFEB860224B1B68FB60F1
:1049C0001EE0FB681A68BB689A4200D91BE0FB68CE
:1049D0001B68BA68D31ABB60FB681B687A6813440B
:1049E0007B60FB683B60FB68DB69FB603B681B7CB2
:1049F000002B05D03B6800221A743868FFF7BCFF13
:104A0000FB68002BDDD1114B1A78114B1B789A42B1
:104A10000CD10F4B1B780133DAB20D4B1A700C4BD3
:104A20001B78022B02D10A4B00221A70084B1B780C
:104A30001946084A7B6842F82130FFF797FF103784
:104A4000BD4680BD103200201432002020320020EC
:104A5000213200201832002080B483B000AF78608B
:104A6000194B1A78194B1B789A4223D0164B1B7896
:104A70000133DAB2144B1A70134B1B78022B02D19C
:104A8000114B00221A70104B1B781A46104B53F82A
:104A900022207B681A607B681A680E4B1B681344DF
:104AA0000C4A13600B4B1B6823F07F43094A1360C9
:104AB000012303E07B6800221A60002318460C37AC
:104AC000BD465DF8047B7047203200202132002073
:104AD000183200201432002080B489B000AFF86092
:104AE000B9607A600023FB6138E0214B1B68BB6131
:104AF000BB691A68FB689A4206D9BB691A68FB68E9
:104B0000D21ABB691A602DE0BB691B68FA68D31A18
:104B1000FB60BB691B68FA691344FB61BB69002237
:104B20001A60134B1B687B61BB69DB69104A136019
:104B3000BB69DB68002B11D0BA68FB69134423F012
:104B40007F42BB695A60BB69DA68BB699A607B685F
:104B50001A68BB69DA617B687A691A60044B1B6862
:104B6000002BC2D12437BD465DF8047B704700BFDF
:104B70001032002080B588B000AF78600023FB774A
:104B8000654B1B687B61A9E07B68002B05D07B68C7
:104B9000BB61BB69DB697B6060E0604B1B781A46D8
:104BA00013465B001344DB005C4A134404333B614F
:104BB0005A4B1B780133DAB2584B1A70574B1A789C
:104BC000564B9B789A4202D1544B00221A703B6993
:104BD0005B68BB613B691B78022B04D0032B1AD0A6
:104BE000012B1ED01CE03B695B681846FFF758FE9E
:104BF0000346002B01D00123FB77BB6900221A7406
:104C00006CE0454B1B68FB60FB6800221A74FB6874
:104C1000DB69414A1360404B1B68002BF1D15DE01A
:104C20005CE000BFBB691B7C002B00D056E03B69F9
:104C30009A68BB695A603B69DA68BB699A603B69EC
:104C40001A69BB69DA603B695A69BB699A61344B7E
:104C50001B78002B02D0BB6900225A60BB695A68DE
:104C6000304B1B68D31A23F07F432F4A93420ED850
:104C7000BB695A682B4B1B6810461946FFF796FD17
:104C80000246BB699B681A44BB691A6017E0254B52
:104C90001A68BB695B6810461946FFF787FDB86064
:104CA000BB699A68BB689A4206D9BB699A68BB68B7
:104CB000D21ABB691A6002E0BB6900221A60BB69A4
:104CC00000225A60BB6900229A60BB6901221A74F3
:104CD000BB690022DA61B869FFF788FD7B68002BA9
:104CE0007FF452AF0D4B1A780C4B5B789A427FF4ED
:104CF0004BAFFB7F002B04D1074B1A687B699A42AC
:104D000001D0012300E0002303F00103DBB21846C9
:104D10002037BD4680BD00BF103200200431002086
:104D20002332002014320020FEFF7F0090B589B0AE
:104D300000AF7860274B1B68002B45D0254B1B68C4
:104D40001B68FB61FFF726FDB861234B1B687B6185
:104D5000B8697969FFF72AFD034603333B611F4BAE
:104D60001B7883F00103DBB2002B01D0FFF7CAFCF4
:104D70003A69FB69934238BF13467A6913447B61F1
:104D80007B6923F07F437B617869FFF71FFDFFF7A5
:104D900001FDF860F868B969FFF708FD0346DC1CFF
:104DA0007869B969FFF702FD03469C420BD9FFF70A
:104DB000F1FC03461846FFF709FD2F20FFF73CFCE6
:104DC000FFF7CEFD02E001E0FFF7BCFC2437BD4653
:104DD00090BD00BF1032002014320020223200208B
:104DE00080B586B000AF00237B600023FB75164BB7
:104DF0001B683B61154B1B68FB603B461846FFF781
:104E00002BFE0346FB72FB7A002B08D03A683B1D51
:104E1000104639691A46FFF75FFE0123FB757B6870
:104E20001846FFF7A7FE0346002B01D00123FB75B0
:104E3000FB7D002B02D0F868FFF778FF044B0022BF
:104E40001A701837BD4680BD143200201032002081
:104E50002332002080B483B000AF0346FB71044AC4
:104E6000FB7953700C37BD465DF8047B704700BF7B
:104E70000431002080B485B000AF7860134B5B78BC
:104E80000133FB73114B9B78FA7B9A4201D10023CB
:104E9000FB730E4B1B78FA7B9A4201D100230EE084
:104EA0007B68FA7B1A70094B5B781A4613465B00E5
:104EB0001344DB00054A13440433BB60BB68184647
:104EC0001437BD465DF8047B704700BF04310020F5
:104ED00080B588B000AFF860B9607A603B600023AD
:104EE000FB610023BB7507F11603184600F0F8F9C3
:104EF00007F117031846FFF7BDFFB861BB69002B28
:104F000002D10423FB6117E0BB6901221A70BB695F
:104F1000FA685A60FFF73EFC0246BB699A60BB69BB
:104F2000BA68DA60BB697A681A61BB693A685A6123
:104F3000FB7D1846FFF78EFFBB7D184600F0DAF9BF
:104F4000FB69002B01D1FFF711FDFB6918462037E3
:104F5000BD4680BD80B586B000AF78600B46FB7063
:104F600000237B610023BB7307F10E03184600F09A
:104F7000B7F907F10F031846FFF77CFF38613B696B
:104F8000002B02D104237B6109E03B69FA781A7097
:104F90003B697A685A60FB7B1846FFF75BFFBB7B77
:104FA000184600F0A7F97B69002B01D1FFF7DEFC62
:104FB0007B6918461837BD4680BD00BF80B500AF7D
:104FC0000D4B0022C3F840210B4B0022C3F84421B3
:104FD000094B0022C3F84821074B0022C3F84C219B
:104FE000054B0022C3F80021034B0022C3F8042123
:104FF000FFF7D0FC80BD00BF0010014080B500AFBE
:10500000FFF7EEFE80BD00BF80B500AFFFF79AFB53
:10501000134B00221A70124B00225A70104B0B22B5
:105020009A70104B00221A600F4B00221A700F4B1F
:1050300000221A701420FFF7BBFA14200721FFF793
:10504000D1FA1420FFF768FA0020FFF749FBFFF7B9
:10505000A1FB0246064B1A600023184680BD00BF24
:1050600004310020103200202032002021320020A4
:105070001432002080B487B000AFF8600B467A602D
:10508000FB72154B9B78002B01D108231DE07B6838
:10509000002B01D1072318E0FB68002B01D1072367
:1050A00013E0FB681B681B7C002B01D008230CE07D
:1050B000FB681B687B617B6900221A747B69FA7A42
:1050C0005A747B697A685A61002318461C37BD46BA
:1050D0005DF8047B704700BF0431002080B586B0C6
:1050E00000AFF860B9607A60FB687B61144B9B7815
:1050F000002B01D108231EE0FB68002B01D10823FF
:1051000019E0BB68042B01D8072314E07B695B69B5
:10511000002B01D108230EE07B695B7C012B01D1C0
:10512000BB6800E000233B617869B9683A697B6835
:10513000FFF7CEFE034618461837BD4680BD00BFB8
:105140000431002080B584B000AF78607B68FB60DC
:105150000D4B9B78002B01D1082310E07B68002BBE
:1051600003D0FB685B69002B01D1082307E0FB68D3
:1051700000221A74F8680221FFF7ECFE0346184675
:105180001037BD4680BD00BF0431002080B584B01B
:1051900000AF0346FB71FB7911481946FFF78CF904
:1051A000F860FB68002B15D10E4802F0A5FB034602
:1051B00083F00103DBB2002B0CD009480A49FFF74A
:1051C00095F90346002B05D106480749012202F054
:1051D00045FBF860FB6818461037BD4680BD00BF30
:1051E00028320020AC2A00202432002080B483B072
:1051F00000AFEFF310833B603B687B6072B67B6867
:1052000018460C37BD465DF8047B704780B400AF8C
:1052100062B6BD465DF8047B704700BF80B584B0C0
:1052200000AF7860FFF7E2FFF860164B9B68002B39
:105230001BD1144B01229A60134BD3F88020134BDF
:105240001340104A1360104B104AC3F880200E4BD5
:10525000D3F884300B4A53600B4B4FF0FF32C3F846
:1052600084207B6800221A7002E07B6801221A7099
:10527000FB68002B01D1FFF7C9FF00231846103748
:10528000BD4680BDA837002000E100E0FC06FFBD60
:1052900080B584B000AF0346FB710F4B9B68002BB9
:1052A00015D0FB79002B12D1FFF7A0FFF8600B4A55
:1052B000094B1B681360094A074B5B685360064B38
:1052C00000229A60FB68002B01D1FFF79FFF0023AB
:1052D00018461037BD4680BDA837002000E100E029
:1052E00080B582B000AF78607868FFF797FF083725
:1052F000BD4680BD80B582B000AF0346FB71FB792F
:105300001846FFF7C5FF0837BD4680BD80B487B09B
:1053100000AF786039607B6853E8021F1FFAA1F282
:10532000D888824202BFBFF32F8F00230DE0D889B7
:1053300002449889824228BF121AC1EA024243E815
:1053400002200028E8D14FF00103FB737861B960B7
:105350003A61BA683B681A60FB7BDBB218461C37BF
:10536000BD465DF8047B704780B485B000AF7860BF
:10537000796851E8023FC3EA234341E80232002A38
:10538000F7D1FA60BB601437BD465DF8047B704707
:1053900080B582B000AF786039603B6878681946A4
:1053A000FFF7B4FF0346002B05D07B681B683A6803
:1053B0005288134400E0002318460837BD4680BDDC
:1053C00080B582B000AF786039603B681A883B686E
:1053D0005B889A4204D17868FFF7C6FF012300E09A
:1053E000002318460837BD4680BD00BF80B483B097
:1053F00000AF78600B46FB707B68DA68FB787968F1
:10540000098A01FB03F3134418460C37BD465DF8C7
:10541000047B704780B483B000AF786039603B682C
:105420007A68D2689B1A7A68128AB3FBF2F3DBB20D
:1054300018460C37BD465DF8047B704780B485B0D4
:1054400000AF78607B68002B01D10E231DE07B68E4
:105450009B681A467B685B68D31AFB737B681B6882
:105460007A6852681A6006E07B681A681368591CEB
:105470001160FA7B1A70FB7B5A1EFA73002BF3D172
:105480007B681B6800221A71002318461437BD463A
:105490005DF8047B704700BF80B584B000AF7860D2
:1054A0000023FB600023BB7207F10A031846FFF7D5
:1054B00017FF7B681B681A687B685B689A421DD976
:1054C0007B681B681A68013A1A601B681B78786849
:1054D0001946FFF78BFFF8607B689B681A467B686C
:1054E0001B681B68D31AFB727B681B681B79FA7AEE
:1054F0009A4203D97B681B68FA7A1A71BB7A1846FC
:10550000FFF7F8FEFB6818461037BD4680BD00BFA8
:1055100090B585B000AF786039603B68FB600023D0
:10552000FB7207F10B031846FFF7DAFE7B681B6876
:105530001C68621C1A607868F968FFF76BFF034605
:105540002370FB7A1846FFF7D5FE1437BD4690BD91
:1055500080B582B000AF78607B689B68002B00D17B
:105560000BE07B685B697A6810697A6811687A6811
:10557000926898477B6800229A600837BD4680BDD4
:105580000EB480B585B000AF7860FB69002B0BD0FE
:105590000023FB6007F12003FB6007F10C03786830
:1055A000F9691A4600F0A2F91437BD46BDE88040FB
:1055B00003B0704780B582B000AF78600B46FB70D7
:1055C0007B681A687B689B68581C796888601344FC
:1055D000FA781A707B689A687B685B689A4202D393
:1055E0007868FFF7B5FF0837BD4680BD80B586B047
:1055F00000AFF860B9607A603B6000237B613B6874
:1056000003F00103002B21D00AE0BB680133BB602B
:105610007B6901337B61FB7CF8681946FFF7CAFFA1
:10562000BB681B78FB74FB7C002BEED106E07B682B
:10563000013B7B60F8682021FFF7BCFF7A687B693B
:105640009A422BD97B68002BF1D127E0BB68002B55
:1056500003D0B86808F0BAFC786106E07B68013BCB
:105660007B60F8682021FFF7A5FF7A687B699A4282
:1056700002D97B68002BF1D10AE0BB680133BB6023
:105680007B6901337B61FB7CF8681946FFF792FF69
:10569000BB681B78FB74FB7C002BEED11837BD4632
:1056A00080BD00BF80B588B000AFF860B9607A6097
:1056B0003B60BB68FB610123BB6107E0FA697B6863
:1056C000B2FBF3F3FB61BB690133BB61FA697B6831
:1056D0009A42F3D23A68BB699A4201D93B68BB61EE
:1056E000FB6A03F00103002B1FD1BB6A002B1CD007
:1056F000FB6A03F00203002B05D03B68002B02D1AC
:105700003023FB7501E02023FB7507E0BB6A013BFA
:10571000BB62FB7DF8681946FFF74CFFBB6A002BA4
:1057200003D0BA69BB6A9A42F0D30123FB613B689C
:10573000012B03D93B68013B3B6009E0BA68FB6978
:10574000B2FBF3F33B613A697B689A4200D205E011
:10575000FB697A6802FB03F3FB61E8E7BA68FB695F
:10576000B2FBF3F33B613B69FA6902FB03F3BA68EE
:10577000D31ABB60144A3B6913441B78F868194676
:10578000FFF718FFFA697B68B2FBF3F3FB61FB6973
:10579000002BE3D1FB6A03F00103002B11D0BB6A9D
:1057A000002B0ED006E0BB6A013BBB62F8682021EB
:1057B000FFF700FFBB6A002B03D0BA69BB6A9A42AD
:1057C000F1D32037BD4680BD98E6020080B588B091
:1057D00002AFF860B9607A603B60BB68002BB8BF6D
:1057E0005B423B6101237B6107E07B683A6992FB86
:1057F000F3F33B617B6901337B617A683B699A42D1
:10580000F3DD3A687B699A4201D93B687B613B6A68
:10581000002B0AD0BB68002B04DB7B6A03F0040377
:10582000002B02D03B6A013B3B627B6A03F0020320
:10583000002B02D03B68002B16D07B6A03F00103DB
:10584000002B11D13B6A002B0ED006E03B6A013BD6
:105850003B62F8682021FFF7ADFE3B6A002B03D0C6
:105860007A693B6A9A42F1D3BB68002B07DABB68BE
:105870005B42BB60F8682D21FFF79CFE08E07B6A65
:1058800003F00403002B03D0F8682B21FFF792FEEE
:105890007B6A03F00203002B19D07B6A03F001033B
:1058A000002B14D13B68002B11D13B6A002B0ED08A
:1058B00006E03B6A013B3B62F8683021FFF77AFE65
:1058C0003B6A002B03D07A693B6A9A42F1D3BA68EB
:1058D0003B6A00937B6A0193F86811467A683B68DB
:1058E000FFF7E0FE1837BD4680BD00BF80B58EB023
:1058F00002AFF860B9607A60BB68002B00D1E7E1C5
:10590000BB681B7887F82F30BB680133BB6097F802
:105910002F30002B00D1D4E197F82F30252B40F009
:10592000C58100233B620123BB62BB681B7887F8FB
:105930002F3097F82F302D2B04D0302B0AD02B2B63
:1059400010D017E03B6A43F001033B62BB680133B0
:10595000BB6012E03B6A43F002033B62BB68013369
:10596000BB600AE03B6A43F004033B62BB6801335F
:10597000BB6002E00023BB6200BFBB6A002BD4D136
:105980000023FB6197F82F302A2B0CD17B681B6812
:10599000191D7A6811601B68FA691344FB61BB68C2
:1059A0000133BB601AE0BB681B7887F82F3097F88B
:1059B0002F302F2B12D997F82F30392B0ED8BB68E8
:1059C0000133BB60FA6913469B0013445B001A461F
:1059D00097F82F301344303BFB61D3E700237B6201
:1059E000BB681B7887F82F3097F82F302E2B1DD1EE
:1059F000BB680133BB60BB681B7887F82F3097F812
:105A00002F302F2B12D997F82F30392B0ED8BB6897
:105A10000133BB607A6A13469B0013445B001A464D
:105A200097F82F301344303B7B62E4E7BB681B7868
:105A300087F82F3097F82F306C2B03D097F82F3042
:105A4000682B07D1BB680133BB60BB681B7887F844
:105A50002F30EFE797F82F30253B532B00F22181B1
:105A600001A252F823F000BF995C0200A35C02007F
:105A7000A35C0200A35C0200A35C0200A35C020022
:105A8000A35C0200A35C0200A35C0200A35C020012
:105A9000A35C0200A35C0200A35C0200A35C020002
:105AA000A35C0200A35C0200A35C0200A35C0200F2
:105AB000A35C0200A35C0200A35C0200A35C0200E2
:105AC000A35C0200A35C0200A35C0200A35C0200D2
:105AD000A35C0200A35C0200A35C0200A35C0200C2
:105AE000A35C0200A35C0200A35C0200A35C0200B2
:105AF000A35C0200A35C0200A35C0200A35C0200A2
:105B0000A35C0200A35C0200A35C0200A35C020091
:105B1000A35C0200A35C0200A35C0200A35C020081
:105B2000A35C0200A35C0200A35C0200A35C020071
:105B3000A35C0200215C0200A35C0200A35C0200E3
:105B4000A35C0200A35C0200A35C0200A35C020051
:105B5000A35C0200A35C0200A35C0200A35C020041
:105B6000B95B0200D75B0200A35C0200A35C0200E9
:105B7000A35C0200A35C0200D75B0200A35C0200EE
:105B8000A35C0200A35C0200A35C0200A35C020011
:105B9000A35C0200635C0200A35C0200A35C020041
:105BA000475C0200A35C0200FB5B0200A35C0200F6
:105BB000A35C0200215C02007B681B68191D7A68E7
:105BC00011601B68BB62BB6AFB76FB7EF8681946F6
:105BD000FFF7F0FC66E07B681B68191D7A681160AE
:105BE0001B68BB62FB6900933B6A0193F868B96A62
:105BF0000A227B6AFFF7EAFD54E07B681B68191DE7
:105C00007A6811601B68BB62BA6AFB6900933B6AE1
:105C10000193F86811460A227B6AFFF743FD41E0D1
:105C20007B681B68191D7A6811601B68BB62BA6AC1
:105C3000FB6900933B6A0193F868114610227B6A66
:105C4000FFF730FD2EE07B681B68191D7A68116034
:105C50001B687B61F8687969FA693B6AFFF7C6FCE3
:105C600020E07B681B68191D7A6811601B68BB62A5
:105C7000F8683021FFF79EFCF8687821FFF79AFC5E
:105C8000BA6A0823009300230193F8681146102292
:105C90000823FFF707FD05E0F8682521FFF78AFCD8
:105CA00000E000BFBB680133BB6005E097F82F3010
:105CB000F8681946FFF77EFCBB681B78002B7FF461
:105CC0001FAEFB681B7B002B02D0F868FFF740FC7F
:105CD0003037BD4680BD00BF80B584B000AF78606E
:105CE0007B68002B03D07B681B68002B28D1002326
:105CF000FB6019E0FA6813469B0013449B001A46A8
:105D0000144B13447B607B681B68002B09D07B68B5
:105D10001B68DB69786898470346002B01D0012394
:105D200014E0FB680133FB600B4A0A4BD31A0B4AA1
:105D3000A2FB03231B09FA689A42DBD3002305E088
:105D40007B681B68DB6978689847034618461037FC
:105D5000BD4680BDB82B0020B82B0020CDCCCCCCCC
:105D600029DF7047184600BF28DF7047184600BF7C
:105D700080B588B000AF786039607B681B689B682D
:105D8000002B39D007F10C0300221A6004330022E3
:105D90001A60043300221A60043300221A600433AC
:105DA00000221A6004333B683B617B689B68FB619F
:105DB0007B681B79002B02D0012B09D015E0012351
:105DC0003B737B681B697B617B685B69BB610CE033
:105DD00002233B737B68DB684FF4805202FB03F3C2
:105DE0007B617B685B69BB6100BF7B681B689B68EC
:105DF00007F10C02104698472037BD4680BD00BF12
:105E000080B586B000AF78607B685A697B689B6913
:105E1000D31AB3F5805F28BF4FF480537B6104220F
:105E20007B69B3FBF2F3012B38BF01237B617B68F5
:105E30001A697B689B6913443B617B68DB681A467F
:105E40007B689B691344FB603869F9687A69FFF7DE
:105E500087FF034618461837BD4680BD80B582B01F
:105E600000AF78607B68DA687B681B69134418466A
:105E7000FFF77AFF034618460837BD4680BD00BFCE
:105E800080B500AF024B18460249FFF799FA80BD72
:105E9000383200206032002080B500AF084B184631
:105EA0000849FFF775FA0246074B1A60064B1B6854
:105EB000002B14BF01230023DBB2184680BD00BFB6
:105EC00038320020603200205C32002080B582B081
:105ED00000AF294B1B7A002B0BD1FFF7DDFF0346E8
:105EE00083F00103DBB2002B03D0234B00225A6066
:105EF0003FE0214B02221A72204B1B681B79002BBA
:105F000002D0012B07D00DE01C4B1B681846FFF791
:105F100077FF786009E0194B1B681846FFF79EFF72
:105F2000786002E003237B6000BF7B68002B02D017
:105F3000112B0DD010E0104B1B7C83F00103DBB262
:105F4000002B04D00220002100F076F811E010E0D0
:105F5000094B01221A720CE0084B1B6818460321FA
:105F6000FFF706FF044B00221A72034B00225A600F
:105F700000BF0837BD4680BD483200205C3200209B
:105F800080B485B000AF78601C4B0022DA607B687B
:105F90001B79002B02D0012B1AD027E07B685A69AD
:105FA0007B689B69D31AB3F5805F28BF4FF4805399
:105FB000FB607B689A69FB681A447B689A617B681E
:105FC0009A697B685B699A4201D101230FE00DE079
:105FD0007B681B695A1C7B681A617B681A697B683D
:105FE0005B699A4201D1012301E000BF00231846FA
:105FF0001437BD465DF8047B704700BF483200206F
:1060000080B483B000AF78600A4BDB680133094A83
:10601000D360084BDB68082B04D9064B0022DA60FA
:10602000012300E0002318460C37BD465DF8047BD1
:10603000704700BF4832002080B584B000AF786060
:106040003960224B1B7A012B30D0022B00D03AE072
:106050000023FB737B68022B02D0032B08D00FE0D8
:106060001B4B1B681846FFF78BFF0346FB7307E0CB
:10607000174B1B681846FFF7C3FF0346FB7300BFAF
:10608000FB7B002B11D0114B00221A72104B1A68A7
:106090007B68022B01D1002300E00D231046194636
:1060A000FFF766FEFFF7ECFE01E000E000BF074BE4
:1060B0005B7C83F00103DBB2002B02D0FFF706FF0D
:1060C00001E007F0EBFB1037BD4680BD48320020F1
:1060D0005C32002080B483B000AF03463960FB71AE
:1060E000074B01225A74064B1B7A002B0CBF01236D
:1060F0000023DBB218460C37BD465DF8047B7047C1
:106100004832002080B582B000AF03463960FB7191
:10611000FB79012B02D0FB79032B0CD1074B00221A
:106120005A74FB79012B0CBF01230023DAB2034B15
:106130001A74FFF7CBFE0837BD4680BD48320020F9
:1061400090B486B000AF786039607B683A6853E8F5
:10615000004F04EB020043E8000191F0000FF6D17C
:106160007C613861F9603B6918461837BD4690BCC0
:10617000704700BF90B486B000AF786039607B682C
:106180003A6853E8004FA4EB020043E8000191F0A5
:10619000000FF6D17C613861F9603B691846183709
:1061A000BD4690BC704700BF80B582B000AF78603C
:1061B0007868FFF743F9034618460837BD4680BDA7
:1061C00080B58AB000AF786039607B681B8A043B79
:1061D000FB613A68FB691344DA1CFB69B2FBF3F319
:1061E000FB767868FFF758F978617B69002B01D15D
:1061F000002337E07B6900221A717B6901225A7102
:10620000FB699AB27B69DA807B697B62FB7E013B2A
:106210003B617B6A7A681A6000233B621DE0786804
:10622000FFF73AF9F860FB68002B0ED07B695B79C9
:106230000133DAB27B695A717B6AFA681A60FB68CB
:106240007A681A60FB687B6204E0786900F00EF8F7
:10625000002307E03B6A01333B623A6A3B699A429A
:10626000DDD37B6918462837BD4680BD80B58AB02E
:1062700000AF78607B68FB61FB695B79FB767B68CC
:106280003B62FB7E013B7B6100237B6205E03B6A56
:106290001B683B627B6A01337B627A6A7B699A4244
:1062A000F5D33B6A1B683B617B683B6200237B62E2
:1062B0000BE03B6A1B68FB603869396AFFF728F915
:1062C000FB683B627B6A01337B62FA7E7B6A9A429F
:1062D000EFD82837BD4680BD80B584B000AF786068
:1062E0007B68FB60FB68043318460121FFF728FF39
:1062F0001037BD4680BD00BF80B586B000AF786066
:106300007B687B617B69043318460121FFF732FF0C
:106310000346FB6007F10C033B613B691B78002BD4
:1063200002D17868FFF7A2FF1837BD4680BD00BFD5
:1063300080B58CB000AFF860B9607A603B60FB68F4
:10634000BB61BB69DB887B61FB68FB623B681A1D34
:106350007B69B2FBF3F3BB623B6804337A69B3FB3E
:10636000F2F2796901FB02F29B1A7B623A687B6860
:106370001A447B691344DA1C7B69B2FBF3F3FB74A8
:1063800005E0FB6A1B68FB62BB6A013BBB62BB6A40
:10639000002BF6D100233B627A697B6AD31AFB613A
:1063A000FA697B68934228BF1346FB612FE097F898
:1063B0003830002B0CD0BA683B6AD118FA6A7B6A75
:1063C0001344043308461946FA6907F039FD0BE017
:1063D000FA6A7B6A1344191DBA683B6A134408467B
:1063E0001946FA6907F02CFD00237B62FB6A1B68E3
:1063F000FB627A68FB69D31A7B603A6AFB691344D3
:106400003B627A697B68934228BF1346FB617B68D5
:10641000002BCCD13037BD4680BD00BF80B586B0E3
:1064200002AFF860B9607A603B6000230093F868BF
:10643000B9687A683B68FFF77BFF1037BD4680BDBF
:1064400080B586B002AFF860B9607A603B60012326
:106450000093F868B9687A683B68FFF769FF1037FE
:10646000BD4680BD80B483B000AF786039607B6882
:106470003A681A607B681B681A687B685A607B6898
:106480005A687B681B685B689A4202D17B6800226D
:106490005A600C37BD465DF8047B704780B483B00A
:1064A00000AF78607B685B68002B00D113E07B68ED
:1064B0005B681A467B681B689B6813441A467B68B6
:1064C0005A607B685A687B681B685B689A4202D195
:1064D0007B6800225A600C37BD465DF8047B70472C
:1064E00080B584B000AF7860786800F00DF8F8608F
:1064F000FB68002B01D0FB6800E0024B1846103708
:10650000BD4680BDB4E6020080B487B000AF7860BD
:10651000174B7B61174B3B611FE03A697B69D31ACC
:10652000DB10DA0F13445B10DB007A691344FB6065
:10653000FB681B68BB60BA687B689A4202D9FB683B
:106540003B610AE0BA687B689A4203D2FB68083371
:106550007B6102E0FB685B6804E07A693B699A4210
:10656000DBD3002318461C37BD465DF8047B70471B
:10657000D0E90200C0EA020080B483B000AF7860C6
:106580000B467B807B681A687B88012101FA03F344
:106590001A437B681A600C37BD465DF8047B704770
:1065A00080B483B000AF78600B467B807B681A684C
:1065B0007B88012101FA03F3DB431A407B681A60F0
:1065C0000C37BD465DF8047B704700BF80B483B0D4
:1065D00000AF78600B467B807B88012202FA03F3D0
:1065E0001A467B681340002B14BF01230023DBB243
:1065F00018460C37BD465DF8047B704780B584B003
:1066000000AF78600023FB810CE0FB8978681946B5
:10661000FFF7DCFF0346002B01D0FB8907E0FB8975
:106620000133FB81FB891F2BEFD94FF6FF7318460F
:106630001037BD4680BD00BF90B587B002AFF8608F
:10664000B96011461A460B46FB8013467B71FC88E5
:106650007B790093F868B9680122234600F004F8BA
:106660001437BD4690BD00BF80B586B000AFF8605E
:10667000B9607A607B80FB68002B3AD0BB68002B46
:1066800037D07B68002B34D000237B612EE07B6900
:106690005B00FA6813441B887A889A4223D100234E
:1066A0003B611BE097F82030002B0AD03B699B0030
:1066B000BA681A447B699BB210461946FFF75CFF23
:1066C00009E03B699B00BA681A447B699BB210469B
:1066D0001946FFF765FF3B6901333B613A697B6807
:1066E0009A42DFD305E07B6901337B617B691F2B15
:1066F000CDD91837BD4680BD80B596B000AFF860E3
:10670000B9607A6000233B61BB68002B1FD0002377
:106710007B6519E07B6D9BB278681946FFF756FFE1
:106720000346002B0DD03B695A1C3A617A6D52002A
:10673000B9680A4412885B0007F158010B4423F83A
:10674000442C7B6D01337B657B6D1F2BE2D9FB688D
:10675000194607F1100344220846194607F070FB5A
:10676000F8685837BD4680BD80B483B000AF78600C
:106770004FF0A04318460C37BD465DF8047B7047C8
:1067800080B584B000AF78603B1D1846FFF7ECFF82
:10679000F8607B681A4601239340F868194600F0B8
:1067A00071F81037BD4680BD80B584B000AF786009
:1067B0003B1D1846FFF7D8FFF8607B681A46012397
:1067C0009340F868194600F06BF81037BD4680BD5D
:1067D00080B584B000AF78603B1D1846FFF7C4FF5A
:1067E000F860FB68D3F80435BB60BB68DA437B68AC
:1067F000194601238B401A40FB68C3F808257B68C3
:106800001A46012303FA02F2BB681A40FB68C3F878
:106810000C251037BD4680BD80B582B000AF7860D2
:1068200039603B68002B03D17868FFF7BDFF02E0B9
:106830007868FFF7A5FF0837BD4680BD80B584B0F6
:1068400000AF78603B1D1846FFF78EFFF860F868D0
:1068500000F00AF802467B6822FA03F303F0010312
:1068600018461037BD4680BD80B483B000AF786055
:106870007B68D3F8043518460C37BD465DF8047BB9
:10688000704700BF80B483B000AF786039607B6828
:106890003A68C3F808250C37BD465DF8047B70479D
:1068A00080B483B000AF786039607B683A68C3F821
:1068B0000C250C37BD465DF8047B704780B584B06D
:1068C00000AF78600E4A7B6813441B781846FFF7C8
:1068D000B5FF0346002B14BF01230023FB73FB7B92
:1068E000002B14BF01230023DBB283F00103DBB2D2
:1068F00003F00103DBB218461037BD4680BD00BF70
:10690000C0EA020080B582B000AF7860054A7B68BB
:1069100013441B7818460021FFF77EFF0837BD4659
:1069200080BD00BFC0EA020080B582B000AF7860D1
:10693000054A7B6813441B7818460121FFF76CFF5A
:106940000837BD4680BD00BFC0EA020080B582B0F6
:1069500000AF00237B6005E07868FFF7E5FF7B6808
:1069600001337B607B68032BF6D90837BD4680BDB9
:1069700080B582B000AF00237B6005E07868FFF748
:10698000C1FF7B6801337B607B68032BF6D9083736
:10699000BD4680BD80B582B000AF7860044A7B6898
:1069A00013441B781846FFF713FF0837BD4680BD18
:1069B000C0EA020080B483B000AF7860044A7B680C
:1069C00013441B7818460C37BD465DF8047B7047AE
:1069D000C4EA020080B483B000AF0346FB710949EA
:1069E00097F907305B09FA7902F01F02012000FADB
:1069F00002F2203341F823200C37BD465DF8047BBA
:106A0000704700BF00E100E080B483B000AF786061
:106A10004FF080427B68C2F808330C37BD465DF802
:106A2000047B704780B483B000AF0346FB71FB79F1
:106A300003F1804301221A600C37BD465DF8047BE8
:106A4000704700BF80B485B000AF0346FB80FB8871
:106A500003F1804300221A60FB8803F180431B6826
:106A6000FB60FB681437BD465DF8047B704700BFD0
:106A700080B483B000AF0346FB80FB8803F1804302
:106A80001B68002B14BF01230023DBB218460C3710
:106A9000BD465DF8047B704780B483B000AF034609
:106AA000FB714FF08042FB7903F00303C2F8183505
:106AB0000C37BD465DF8047B704700BF80B400AF63
:106AC0004FF08043D3F8183403F480331B0C002BB1
:106AD00014BF01230023DBB21846BD465DF8047BDA
:106AE000704700BF80B483B000AF0346FB710C4A0F
:106AF00097F907305B0952F82320FB7903F01F0355
:106B000022FA03F303F00103002B14BF0123002337
:106B1000DBB218460C37BD465DF8047B704700BFFA
:106B200000E100E080B500AF0020FFF7DBFF034687
:106B300083F00103DBB2002B03D00020072100F01B
:106B40006DF980BD80B500AF0C20FFF76BFF00BF73
:106B5000FFF7B4FF0346002BFAD1024B00229A70D4
:106B600080BD00BF6432002080B582B000AF00233A
:106B70007B60144B1B78002B02D085237B601BE0CD
:106B8000104B00229A600F4B00225A600D4B0022DE
:106B90001A610C4B0022DA60FFF7C4FF06F09AFE80
:106BA000034683F00103DBB2002B02D00020FFF785
:106BB00073FF044B01221A707B6818460837BD46E4
:106BC00080BD00BF6432002080B485B000AF786023
:106BD0007B681B68FB60FB68002B03D0FB681A68AE
:106BE0007B681A60FB6818461437BD465DF8047B65
:106BF000704700BF80B582B000AF0023FB71FB1D62
:106C00001846FEF76DFB094BDB68013B074AD36072
:106C1000064BDB68002B01D1FFF794FFFB79184688
:106C2000FEF768FB0837BD4680BD00BF6432002018
:106C300080B584B000AF0346FB71FB79002B02D115
:106C40000A4BFB6001E00A4BFB60F868FFF7BCFFF2
:106C5000B860BB68002B00D105E0BB685B68FA79BF
:106C600010469847F1E71037BD4680BD6C320020D2
:106C70007432002080B500AF4FF48070FFF7F8FE4B
:106C80000346002B0CD04FF48070FFF7DBFE012091
:106C9000FFF7BAFE0D4B01225A700020FFF7C8FF24
:106CA0004FF48270FFF7E4FE0346002B0CD04FF444
:106CB0008270FFF7C7FE0220FFF7A6FE034B0122FA
:106CC0009A700120FFF7B4FF80BD00BF643200203E
:106CD00080B582B000AF786039607B68002B02D14C
:106CE0000020FFF7A5FF0837BD4680BD80B584B002
:106CF00000AF03463960FB71FB79012B08D0032BF1
:106D000023D0002B00D027E00020FFF763FE23E014
:106D10000023FB7307F10F031846FEF7E1FA104B4F
:106D20001B7883F00103DBB2002B01D0FFF71CFFBF
:106D30000B4BDB6801330A4AD360094B01229A707E
:106D4000FB7B1846FEF7D6FA06E00020072100F08C
:106D500065F8FFF74FFF00BF1037BD4680BD00BF8D
:106D60006432002080B483B000AF0346FB71084951
:106D700097F907305B09FA7902F01F02012000FA47
:106D800002F241F823200C37BD465DF8047B7047C2
:106D900000E100E080B483B000AF0346FB71094915
:106DA00097F907305B09FA7902F01F02012000FA17
:106DB00002F2603341F823200C37BD465DF8047BB6
:106DC000704700BF00E100E080B483B000AF03462D
:106DD0003960FB7197F90730002B0BDA0D49FB790D
:106DE00003F00F03043B3A68D2B25201D2B20B4413
:106DF0001A7609E0084997F907303A68D2B2520189
:106E0000D2B20B4483F800230C37BD465DF8047BF7
:106E1000704700BF00ED00E000E100E080B582B007
:106E200000AF03460A46FB711346BB71BB7997F965
:106E3000072010461946FFF7C7FF97F90730184695
:106E4000FFF7A8FF97F907301846FFF78BFF0837C1
:106E5000BD4680BD80B582B000AF0346FB80FB8895
:106E6000184600F023F803461B68012B0CBF0123D2
:106E70000023DBB218460837BD4680BD80B584B01C
:106E800000AF0346FB80FB88184600F00FF803466E
:106E90001A4600231360FB88184600F007F80346E3
:106EA0001B68FB60FB681037BD4680BD80B483B0B3
:106EB00000AF0346FB80FB8803F1804303F5C0432A
:106EC00018460C37BD465DF8047B704780B483B02C
:106ED00000AF7860054BD3F804237B681340184655
:106EE0000C37BD465DF8047B704700BF0060004072
:106EF00080B483B000AF7860074A7B6803F5A27363
:106F000052F8233003F4F8531B0A18460C37BD46D9
:106F10005DF8047B704700BF0060004080B483B020
:106F200000AF7860074A7B6803F5A27352F82330FC
:106F300003F440331B0CDBB218460C37BD465DF83A
:106F4000047B70470060004080B483B000AF78607D
:106F50004FF0A04318460C37BD465DF8047B7047E0
:106F600080B584B000AF78600B46FB703B1D1846BF
:106F7000FFF7EAFFF8607A687968FB6801F5E0716D
:106F800053F8213023F44031FB6802F5E07243F8F6
:106F900022107A687968FB6801F5E07153F82130B6
:106FA000F97809041943FB6802F5E07243F82210EE
:106FB0001037BD4680BD00BF80B584B000AF78609B
:106FC0003B1D1846FFF7C0FFF8607A68FB6802F5C2
:106FD000E07253F8223003F440331B0CDBB2184646
:106FE0001037BD4680BD00BF80B483B000AF78606D
:106FF0007B68D3F8103518460C37BD465DF8047B26
:10700000704700BF80B586B000AFF860B9607A60A5
:107010004FF0A0433B61FB687B6112E07B699B0002
:1070200007F11802134453F8083C1846FFF7DCFF39
:1070300002467B681A607B6804337B607B6901339E
:107040007B61FA68BB681A447B699A42E6D81837B4
:10705000BD4680BD80B485B000AF786039603B68C4
:10706000FB607B68DB08BB607B6803F007037B6029
:107070007B68012202FA03F3F968BA680A441278BD
:10708000134018461437BD465DF8047B704700BFB7
:1070900080B485B000AF786039603B68FB607B6886
:1070A000DB08BB607B6803F007037B60FA68BB68A2
:1070B0001344F968BA680A441278D0B27A68012198
:1070C00001FA02F2D2B201460A43D2B2D2B21A7027
:1070D0001437BD465DF8047B704700BF80B483B0B1
:1070E00000AF7860054A7B68134430331B785BB28D
:1070F00018460C37BD465DF8047B70477832002097
:1071000080B483B000AF7860044A7B6852F82330C3
:1071100018460C37BD465DF8047B70477832002076
:1071200080B594B000AF0023FB640023FB604FF4F4
:107130008073A7F8463001233B640023BB6421E041
:10714000B7F846301846FFF785FE0346002B0ED0F1
:10715000386CFFF7BBFE0346002B08D0B7F846306B
:107160001846FFF78BFEFA6C3B6C1343FB643B6CD9
:107170005B003B64B7F846300433A7F84630BB6C7D
:107180000133BB64BB6C072BDAD94FF4BE70FFF739
:1071900061FE0346002B0ED04FF4BE70FFF76EFE6B
:1071A000FB6C43F00043FB6407F10C03002001215A
:1071B0001A46FFF727FFFB6CDBB2002B29D0012317
:1071C0003B640023BB6421E03A6CFB6C1340002B52
:1071D00016D0B86CFFF78CFE7863B86CFFF79EFE94
:1071E000034687F83330B86CFFF78AFFF862FB6A12
:1071F000002B05D097F83320FB6A786B114698472F
:107200003B6C5B003B64BB6C0133BB64BB6C072B0A
:10721000DAD9FB6C002B80F2F080002387F83B303A
:107220000023BB600023FB630BE0FB6B9B0007F1BB
:10723000500213444FF0FF3243F84C2CFB6B0133E8
:10724000FB63FB6B002BF0D0002387F83B3000235F
:10725000BB6473E06A4ABB6C134450331B7887F8F5
:107260002B3097F82B3023F0C0037B62644ABB6C51
:10727000134450331B785BB2B3F1FF3F5BD03B1D2F
:10728000786A1946FFF7E6FE0346002B53D097F8BD
:107290002B309B0987F82330786AFFF71FFF0346DE
:1072A0001846FFF72DFFF861FB69002B03D197F813
:1072B0002330032B3FD197F82330032B05D107F15F
:1072C0000803786A1946FFF7E3FE786AFFF774FE51
:1072D0000346FB7607F10C03786A1946FFF7BAFEFE
:1072E00078617B69002B02D0FB7E022B05D07B6985
:1072F000002B20D1FB7E032B1DD197F82330032BCD
:1073000010D1FB7E022B01D1032300E00223FB748A
:10731000FB7C786A1946FFF723FE97F83B30013370
:1073200087F83B30FB69002B05D097F82320FB69D9
:10733000786A11469847BB6C0133BB64BB6C032B66
:1073400088D997F83B30002B52D0012387F83A3088
:107350003B46002001211A46FFF754FE0023FB6341
:1073600016E0FB6B9B0007F15002134453F8502CBE
:10737000FB6B9B0007F150010B4453F8443C9A42CD
:1073800003D0002387F83A3005E0FB6B0133FB6341
:10739000FB6B002BE5D097F83A30002B03D000238D
:1073A00087F83B3024E00023FB631EE0FB6B9B006F
:1073B00007F15002134453F8502CFB6B9B0007F16C
:1073C00050010B4443F8442CFB6B9B0007F1500227
:1073D000134453F8482CFB6B9B0007F150010B44FE
:1073E00043F84C2CFB6B0133FB63FB6B002BDDD0B4
:1073F00097F83B30002B7FF427AF5037BD4680BD58
:107400007832002080B485B000AF78600B467B8076
:107410007B887A68134400221A607B887A68134458
:107420001B68FB60FB681437BD465DF8047B704742
:1074300080B483B000AF78600B467B807B887A682D
:1074400013441B68002B14BF01230023DBB2184632
:107450000C37BD465DF8047B704700BF80B483B035
:1074600000AF786039607B68D3F804233B68134031
:10747000002B14BF01230023DBB218460C37BD4696
:107480005DF8047B704700BF80B483B000AF7860C4
:1074900039607B683A68C3F808230C37BD465DF84D
:1074A000047B704780B485B000AF78607B68D3F808
:1074B0008034FB607B68FA68C3F88024FB68184658
:1074C0001437BD465DF8047B704700BF80B483B0BD
:1074D00000AF78607B68D3F81835DBB218460C37FC
:1074E000BD465DF8047B704780B483B000AF786020
:1074F0000B46FB70FA787B68C3F81C250C37BD4639
:107500005DF8047B704700BF80B483B000AF786043
:107510000B46FB70FB787A68134401221A600C3723
:10752000BD465DF8047B704780B485B000AF7860DD
:107530000B467B807B887A68134400221A607B8824
:107540007A6813441B68FB60FB681437BD465DF81E
:10755000047B704780B483B000AF78600B467B80BB
:107560007B887A6813441B68002B14BF0123002317
:10757000DBB218460C37BD465DF8047B704700BF90
:1075800080B483B000AF786039607B68D3F80022A4
:107590003B68DB431A407B68C3F800220C37BD46CA
:1075A0005DF8047B704700BF80B485B000AF7860A1
:1075B0007B68D3F88034FB607B68FA68C3F880246A
:1075C000FB6818461437BD465DF8047B704700BF62
:1075D00080B483B000AF78600B46FB70FB787A68AC
:1075E000134401221A600C37BD465DF8047B7047D6
:1075F00080B485B000AFF860B9601346FB71BA681B
:10760000FB68C3F84425FA79FB68C3F848251437AA
:10761000BD465DF8047B704780B483B000AF7860EE
:107620007B68D3F84C3518460C37BD465DF8047BB3
:10763000704700BF80B483B000AF78607B68D3F838
:107640003C3518460C37BD465DF8047B704700BFDB
:1076500080B483B000AF78607B6803F06043B3F11F
:10766000005F0CBF01230023DBB218460C37BD4678
:107670005DF8047B704700BF80B584B000AF7860D0
:10768000396078684FF48E71FFF7BCFE3B689B68E9
:107690003A68928A92B213441B78FB733B689B8AC8
:1076A0009BB201339AB23B689A82FB7B7868194699
:1076B000FFF71AFF1037BD4680BD00BF80B584B00C
:1076C00000AF78607B681B795B01354A1344BB606F
:1076D0000023FB607B681B6818464FF48E71FFF730
:1076E00091FE7B681B6818460821FFF70DFF7B6839
:1076F0001B681846B968FFF7BFFFBB685B68002BC3
:1077000048D11FE000BF7B681B6818464FF48E719C
:10771000FFF78EFE034683F00103DBB2002B05D09A
:10772000BB689B8A9BB2B3F5807FECD1BB689B8A18
:107730009BB2B3F5807F05D07B681B681846B9689B
:10774000FFF79AFFBB689B8A9AB2BB689B7D9BB28E
:107750009A42D7D3BB689B8A9BB2B3F5807F02D194
:107760000F23FB6013E000BF7B681B6818464FF4D3
:107770008E71FFF75DFE034683F00103DBB2002B41
:10778000F2D17B681B6818460C21FFF7BDFEBB6871
:1077900000229A75FB6818461037BD4680BD00BFB1
:1077A000D032002080B586B000AF78607B681B794E
:1077B0005B01294A13443B6100237B617B681B68A2
:1077C00018464FF49071FFF7AFFE7B681B681846B0
:1077D0004FF4AC71FFF7A8FE7B6819683B699A68A3
:1077E0003B699B7D084611461A46FFF701FF7B68FF
:1077F0001B6818460821FFF7EBFE3B695B68002B0E
:1078000025D17B681B6818464FF49071FFF7A2FEE4
:107810000346FB737B681B6818464FF4AC71FFF797
:1078200099FE0346BB73FB7B83F00103DBB2002BA5
:1078300005D0BB7B83F00103DBB2002BE1D1BB7B26
:10784000002B01D00F237B613B6900229A757B6975
:1078500018461837BD4680BDD032002080B586B0AE
:1078600000AFF860B9601346FB71FB681B795B01E0
:10787000204A13447B61FB681B791E4A5B01134459
:1078800018331B79002B0CD0B868FFF7E1FE0346D4
:1078900083F00103DBB2002B03D010233B613B6973
:1078A00024E0F86800F028F80346002B03D01123E9
:1078B0003B613B691AE07B69FA799A757B69BA6822
:1078C0009A607B6900229A82FB681B79094A5B01F6
:1078D000134418331B79002B04D0F868FFF762FFBC
:1078E000034603E0F868FFF7E9FE03461846183739
:1078F000BD4680BDD032002080B483B000AF786038
:107900007B681B79074A5B01134410339B79002B7A
:1079100014BF01230023DBB218460C37BD465DF8C7
:10792000047B7047D032002090B583B000AF786000
:1079300039603B68DB7D002B08D178684FF4847197
:10794000FFF760FD7868FFF7C1FD16E078684FF437
:107950008471FFF757FD3B68DB683A68527ED2B20C
:107960009C187868FFF7B2FD034623703B685B7E86
:10797000DBB20133DAB23B685A760C37BD4690BDB4
:1079800080B588B000AFF8600B467A60FB720123C7
:107990003B74FB7A3B767B687B61FB685B68FA68CB
:1079A000126807F110010846114698472037BD4676
:1079B00080BD00BF80B586B000AF78600B46FB701D
:1079C00000233B72FB783B747B689B68FB607B68A1
:1079D00000229A757B685B687A68126807F1080173
:1079E0000846114698471837BD4680BD80B588B017
:1079F00000AF7860396078684FF40071FFF72EFDB2
:107A00000346002B39D078684FF49271FFF710FDD0
:107A10000346002B31D078684FF49271FFF7F2FCE7
:107A200078684FF40171FFF72FFD3B689B7E83F070
:107A30000103DBB2002B03D078680421FFF764FD5B
:107A400002233B727868FFF72DFD03467B613B689C
:107A5000DB7D3B743B68DB68FB603B680022DA75CA
:107A60003B6800221A763B685B683A68126807F147
:107A7000080108461146984755E078680421FFF749
:107A8000EDFC0346002B4ED078684FF48471FFF76D
:107A9000CFFC0346002B46D078683968FFF744FFD7
:107AA0003B68DA7D3B685B7EDBB29A423BD13B6848
:107AB0001B7E002B1AD03B68DB68FB613B685B7E5A
:107AC000FB763B681A7E3B68DA753B681A693B684F
:107AD000DA603B6800221A763B6800225A76FB7E09
:107AE00038681946FA69FFF74BFF1CE03B689B7E3C
:107AF00083F00103DBB2002B03D078680421FFF789
:107B000003FD78684FF40171FFF7BEFC3B6800226B
:107B1000DA753B685B7EDAB23B68DB683868114631
:107B20001A46FFF72DFF78684FF48E71FFF780FC3F
:107B30000346002B1BD03B689B8A9AB23B689B7D17
:107B40009BB29A4204D278683968FFF795FD0EE03F
:107B500078684FF48E71FFF755FC3B689B7D002BD6
:107B600005D03B689B7D38681946FFF723FF78688E
:107B70004FF4A271FFF75CFC0346002B1DD0786820
:107B80004FF4A271FFF73EFC3B689B7E002B03D0B5
:107B900078680021FFF7B8FC3B68DB7D002B0CD038
:107BA0003B680022DA753B685B7EDAB23B68DB68D3
:107BB000386811461A46FFF7E3FE2037BD4680BD00
:107BC00080B588B000AF7860396078684FF4927102
:107BD000FFF7C0FC0346002B24D078684FF4927165
:107BE000FFF7A2FC02233B727868FFF7DDFC034637
:107BF0007B617868FFF71EFD0346DBB23B743B6890
:107C0000DB68FB603B680022DA753B6800221A766D
:107C10003B685B683A68126807F10801084611463C
:107C200098473EE078684FF48871FFF793FC03466D
:107C3000002B36D078684FF48871FFF775FC7868B0
:107C4000FFF7F8FC0346FB773B68DB7DFA7F9A423F
:107C500027D13B681B7E002B18D03B68DB68BB61DB
:107C600078682021FFF78CFC3B681A7E3B68DA7548
:107C70003B681A693B68DA603B6800221A76FB7F32
:107C800038681946BA69FFF77BFE0AE03B680022B4
:107C9000DA753B68DB68FA7F386811461A46FFF7E9
:107CA0006FFE78684FF4A271FFF754FC0346002B77
:107CB00017D078684FF4A271FFF736FC3B68DB7D84
:107CC000002B0ED03B680022DA757868FFF7B2FC13
:107CD0000346DAB23B68DB68386811461A46FFF79C
:107CE0004FFE78684FF49071FFF734FC0346002B89
:107CF00011D078684FF49071FFF716FC3B689B7DBC
:107D0000002B08D07868FFF787FC0346DBB23868A1
:107D10001946FFF74FFE2037BD4680BD80B500AF46
:107D2000064B1B7F002B04D005480449FFF748FF92
:107D300003E003480149FFF759FE80BDD03200201F
:107D40000020004080B483B000AF78604FF0A043C3
:107D500018460C37BD465DF8047B704780B584B08B
:107D600000AF78600B46FB703B1D1846FFF7EAFF3B
:107D7000F8607A687968FB6801F5E07153F82130A2
:107D800023F44031FB6802F5E07243F822107A6870
:107D90007968FB6801F5E07153F82130F97809043E
:107DA0001943FB6802F5E07243F822101037BD4614
:107DB00080BD00BF80B582B000AF0C4B1B78002B9C
:107DC0000FD000237B6008E07B68022B02D078682C
:107DD000FEF7AAFD7B6801337B607B68032BF3D938
:107DE00001E0FEF7B3FD0837BD4680BDF832002044
:107DF0002DE9F04F8BB000AF0346FB7700237B6289
:107E000000233B62CD4B1B78002B04D0CB4A0023D0
:107E10001370FFF7CFFFFB7F172B00F2198201A22F
:107E200052F823F0857E0200917E0200917E0200CE
:107E30001D7F0200A17F02000F8002008D800200E2
:107E4000AB800200B9800200D7800200F5800200FA
:107E50001381020031810200498102004981020040
:107E6000498102004981020049810200FD8102002E
:107E7000098202001B8202002D820200458202005C
:107E800045820200FFF796FFAD4AFB7F1370E0E1E9
:107E90000020FEF713FD0346002B0CD00020FEF758
:107EA00043FDFB7F022B02D14FF4E16301E04FF46D
:107EB0007A633B620AE00020FEF724FDFB7F022B81
:107EC00001D1C82301E04FF4C8733B629C4AFB7F99
:107ED00013709C4C3B6A1A464FF00003D90379613A
:107EE000796941EA52417961D3033B61D7E90423BF
:107EF00012F5FA7243F10003104619464FF47A72F4
:107F00004FF0000306F07AF802460B46134620466F
:107F100019460022FDF7E2F878629AE10020FEF7A8
:107F2000CDFC0346002B0CD00020FEF7FDFCFB7FB0
:107F3000032B02D14FF4487301E04FF47A633B62A4
:107F40000AE00020FEF7DEFCFB7F032B01D1C823F3
:107F500001E04FF4C8733B62794AFB7F1370794CA0
:107F60003B6A1A464FF000034FEAC33B4BEA524BC1
:107F70004FEAC23A1AF5FA724BF10003104619465D
:107F80004FF47A724FF0000306F038F802460B46C1
:107F90001346204619460022FDF7A0F8786258E102
:107FA0000020FEF78BFC0346002B06D00020FEF7D6
:107FB000BBFC4FF47A633B6205E00020FEF7A2FCB5
:107FC0004FF4C8733B625E4AFB7F13705D4C3B6AA3
:107FD0001A464FF000034FEAC33949EA52494FEAC3
:107FE000C23818F5FA7249F10003104619464FF4E9
:107FF0007A724FF0000306F001F802460B46134672
:10800000204619460022FDF769F8786221E1002038
:10801000FEF754FC0346002B0BD00020FEF784FC37
:10802000FB7F052B01D1C82301E04FF47A633B624B
:108030000AE00020FEF766FCFB7F052B01D1C82378
:1080400001E04FF4C8733B623D4AFB7F13703D4E25
:108050003B6A1A464FF00003DD0345EA5245D4035C
:1080600014F5FA7245F10003104619464FF47A727E
:108070004FF0000305F0C2FF02460B4613463046A0
:1080800019460022FDF72AF87862E2E00020FEF7A8
:1080900081FC2B4AFB7F13702A4B184640F6CD41DA
:1080A0000022FDF71BF87862D3E00020FEF72AFCDF
:1080B000234AFB7F1370CCE0204B01221A70012071
:1080C000FEF768FC1F4B184640F6CD410022FDF735
:1080D00005F87862BDE0194B01221A700120FEF705
:1080E00059FC184B18464FF480410022FCF7F6FF6C
:1080F0007862AEE0114B01221A700120FEF74AFCB3
:10810000104B184640F6CD410022FCF7E7FF78629D
:108110009FE00A4B01221A700120FEF73BFC094B3D
:1081200018464FF480410022FCF7D8FF786290E0B7
:10813000FEF71EFC024AFB7F13708AE0F13200203A
:10814000F0320020FC320020454B1846FCF7FAFFC5
:108150007862FB7FC3F111033B623B6A002B46D080
:108160007B6A002B43D13B6A012B39D93C4C3B6ADB
:108170009BB298B24FF0000102460B46921843EBB7
:108180000303121843EB0103DD00FD60FD6845EABF
:108190005275FD60D300BB60D7E90223121843EB90
:1081A000010399047960796841EA92317960930416
:1081B0003B60D7E9002312F5FA7243F10003104641
:1081C00019464FF47A724FF0000305F017FF02468C
:1081D0000B461346204619460022FCF77FFF7862C3
:1081E0000220FEF78FFB1F4B01221A7031E00220A4
:1081F000FEF79AFB1B4B00221A702AE0FFF7DAFD0C
:10820000194AFB7F137024E0FFF7D4FD0020FEF72E
:1082100079FB154AFB7F13701BE0FFF7CBFD0120B4
:10822000FEF770FB104AFB7F137012E0FFF7C2FDF0
:108230000020FEF767FB0120FEF764FB0A4AFB7F84
:10824000137006E0FEF794FB074AFB7F137000E013
:1082500000BF7B6A18462C37BD46BDE8F08F00BFD3
:108260001C330020F8320020F032002080B584B0AA
:1082700000AF0346FB710023FB60084B1B6803F053
:108280000103002B04D0FB791846FFF7B1FDF8601D
:10829000FB6818461037BD4680BD00BFF432002091
:1082A00080B485B000AF78600B46FB701346BB709E
:1082B0000023FB607B68032B33D8BB78012B09D1EB
:1082C000FB78012B04D17B68DBB20E33DBB200E01C
:1082D0000023BB70FB78012B04D0022B0BD0002BAA
:1082E00012D01AE013497A6813465B0013440B441A
:1082F000BA781A7014E00F497A6813465B00134489
:108300000B44BA785A700BE00A497A6813465B004E
:1083100013440B44BA789A7002E00723FB6000BF55
:1083200001E00723FB60FB6818461437BD465DF883
:10833000047B70473C33002080B582B000AF78608A
:108340007868FEF737FB034618460321FFF706FD62
:10835000002318460837BD4680BD00BF80B582B0F7
:1083600000AF002000210122FFF79AFF78607B68B0
:10837000002B04D07B68072B01D07B681CE0012018
:1083800002210722FFF78CFF78607B68002B04D066
:108390007B68072B01D07B680EE0002002210422BD
:1083A000FFF77EFF78607B68002B04D07B68072B8B
:1083B00001D07B6800E0002318460837BD4680BD29
:1083C00080B582B000AF002002210122FFF768FFD4
:1083D00078607B68002B04D07B68072B01D07B681A
:1083E0001CE0012002210722FFF75AFF78607B681A
:1083F000002B04D07B68072B01D07B680EE00020A7
:1084000000210A22FFF74CFF78607B68002B04D024
:108410007B68072B01D07B6800E0002318460837F3
:10842000BD4680BD80B582B000AF0020FFF784FF5D
:1084300078607B68002B04D07B68062B01D07B68BA
:108440000CE00120FFF778FF78607B68002B04D0F8
:108450007B68062B01D07B6800E0002318460837B4
:10846000BD4680BD80B584B000AF786039607B6860
:108470001B88102B02D0112B18D030E0194B1B6831
:10848000002B0DD1FFF76AFFF860FB68002B07D0C7
:10849000154B1B68002B03D0134B1B68F8689847DB
:1084A000104B1B6801330F4A136018E00D4B1B681B
:1084B000013B0C4A13600B4B1B68002B0ED1FFF7DE
:1084C0007FFFF860FB68002B08D0074B1B68002B70
:1084D00004D0054B1B68F8689847FFE700BF1037CA
:1084E000BD4680BD4C3300204833002080B483B0AB
:1084F00000AF03463960FB7197F90730002B0BDAA8
:108500000D49FB7903F00F03043B3A68D2B25201E4
:10851000D2B20B441A7609E0084997F907303A6855
:10852000D2B25201D2B20B4483F800230C37BD46BD
:108530005DF8047B704700BF00ED00E000E100E063
:1085400080B582B000AF78607B68013BB3F1807F7B
:1085500001D301230FE00A4A7B68013B53604FF0CF
:10856000FF300721FFF7C2FF054B00229A60044B42
:1085700007221A60002318460837BD4680BD00BF99
:1085800010E000E032DF7047184600BF76DF70472A
:10859000184600BF7ADF7047184600BF7CDF70477F
:1085A000184600BF7FDF7047184600BF8FDF704757
:1085B000184600BFA8DF7047184600BFA9DF704704
:1085C000184600BF66DF7047184600BF80B483B00E
:1085D00000AF78604FF0A04318460C37BD465DF8F9
:1085E000047B704780B584B000AF786008461146C0
:1085F0001A460346FB700B46BB7013467B703B1D4F
:108600001846FFF7E3FFF8607A68F978BB785B00FB
:1086100019437B789B0019433B7E1B0219433B7F28
:108620001B041943FB6802F5E07243F8221010376F
:10863000BD4680BD80B584B002AF78600023009352
:10864000002301937868012101220023FFF7CAFF6C
:108650000837BD4680BD00BF80B584B000AF7860EC
:108660003B1D1846FFF7B2FFF8607B681A460123EE
:108670009340F868194600F029F81037BD4680BDD0
:1086800080B584B000AF78603B1D1846FFF79EFFB1
:10869000F8607B681A4601239340F868194600F099
:1086A00023F81037BD4680BD80B582B000AF78603A
:1086B00039603B68002B03D17868FFF7E1FF02E0E7
:1086C0007868FFF7C9FF0837BD4680BD80B483B026
:1086D00000AF786039607B683A68C3F808250C37CA
:1086E000BD465DF8047B704780B483B000AF78600E
:1086F00039607B683A68C3F80C250C37BD465DF8D5
:10870000047B704780B586B000AF3B78012262F3EE
:1087100003033B703B78012262F307133B70194857
:1087200005F054FC03469BB23A46104615491A46DA
:10873000FFF734FF78617B693B613B69002B02D016
:108740003869FBF703FE3B1D18460021082205F09F
:1087500082FB1023BB803C23FB8000233B814FF432
:10876000C8737B813B1D1846FFF714FF78617B6956
:10877000FB60FB68002B02D0F868FBF7E7FD1837B9
:10878000BD4680BDE0EA020080B586B000AF7860EB
:108790007B681B78002B3FD100237B6126E07B6840
:1087A0009A687B6913441B781846FCF7EFFC386124
:1087B0003B69002B14D03B69112B11D0184B1B883F
:1087C0001B0443F00103184616493A69FBF7B8F950
:1087D0003B69FB60FB68002B02D0F868FBF7B6FD35
:1087E0003B69112BDBD07B6901337B617B689B8903
:1087F0001A467B699A42D2D87B689A687B689B89C3
:10880000013B13441B780D2B06D100BF0A20FCF757
:10881000BDFC0346112BF9D01837BD4680BD00BF03
:10882000402B0020ECEA020080B584B000AF3B1D75
:1088300018460021042205F00EFB094B7B603B1D0E
:108840000848194604F024FDF860FB68BB60BB686B
:10885000002B02D0B868FBF779FD1037BD4680BD0C
:10886000898702005033002080B584B000AF786063
:108870007B681B78002B0ED1084B1B8818463B21C8
:10888000FFF784FEF860FB68BB60BB68002B02D07A
:10889000B868FBF75BFD1037BD4680BDB42A0020E9
:1088A00080B582B000AF78607868FBF74FFD08377D
:1088B000BD4680BD80B58AB000AF3B1D1846002183
:1088C0001C2205F0C8FA00237B604FF42033BB6004
:1088D0004FF47023FB6003233B7400237B8200234F
:1088E0003B750A4BBB610A4BFB613B1D184603F00D
:1088F0006BFA78627B6A3B623B6A002B02D0386A73
:10890000FBF724FD2837BD4680BD00BF6988020003
:10891000A188020080B584B000AF0020FFF7A6FC5C
:10892000F860FB68BB60BB68002B02D0B868FBF73F
:108930000DFDFFF777FDF860FB687B607B68002B1F
:1089400002D07868FBF702FDFFF71CFEF860FB68B9
:108950003B603B68002B02D03868FBF7F7FC103710
:10896000BD4680BD80B584B000AF0346FB71FB7986
:10897000002B10D0032B00D010E00220FFF776FC74
:10898000F860FB68BB60BB68002B03D0B868FBF7DE
:10899000DDFC03E002E0FFF7BDFF00BF1037BD467E
:1089A00080BD00BF90B595B000AF786039607B683E
:1089B0001B88013B552B00F27F8101A252F823F066
:1089C0002B8C0200B98C0200B98C0200B98C020019
:1089D000B98C0200B98C0200B98C0200B98C02007B
:1089E000B98C0200B98C0200B98C0200B98C02006B
:1089F000B98C0200B98C0200B98C0200198B0200FC
:108A00004D8B0200B98C02009B8B0200B98C0200D6
:108A1000B98C0200B98C0200B98C0200B98C02003A
:108A2000B98C0200B98C0200B98C0200B98C02002A
:108A3000B98C0200B98C0200B98C0200B98C02001A
:108A4000698B0200B98C0200B98C0200B98C02005B
:108A5000B98C0200B98C0200B98C0200B98C0200FA
:108A6000B98C0200B98C0200B98C0200B98C0200EA
:108A7000B98C0200B98C0200B98C0200B98C0200DA
:108A8000B98C0200B98C0200B98C0200B98C0200CA
:108A9000B98C0200B98C0200B98C0200B98C0200BA
:108AA000B98C0200B98C0200E78B0200B98C02007D
:108AB000B98C0200B98C0200B98C0200B98C02009A
:108AC000B98C0200B98C0200B98C0200B98C02008A
:108AD000B98C0200B98C0200B98C0200B98C02007A
